:020000040800F2
:10000000005000206D1F0008751E0008771E0008B4
:10001000791E00087B1E00087D1E000800000000FD
:100020000000000000000000000000007F1E00082B
:10003000811E000800000000831E0008851E0008C5
:10004000B51F0008B51F0008B51F0008B51F000840
:10005000B51F0008B51F0008B51F0008B51F000830
:10006000B51F0008B51F0008B51F0008B51F000820
:10007000B51F0008B51F0008B51F0008B51F000810
:10008000B51F0008B51F0008B51F0008B51F000800
:10009000B51F0008B51F0008B51F00088D1E000819
:1000A000B51F0008B51F0008B51F0008B51F0008E0
:1000B000B51F0008B51F0008B51F0008B51F0008D0
:1000C000B51F0008B51F0008B51F0008B51F0008C0
:1000D000B51F0008B51F0008B51F0008B51F0008B0
:1000E0009D1E0008B51F0008B51F00080000000095
:1000F0000000000000000000000000000000000000
:0C01000000000000000000005FF808F1A3
:1001100010B5054C237833B9044B13B10448AFF341
:1001200000800123237010BD880A00200000000019
:10013000C4B9000808B5034B1BB103490348AFF32A
:10014000008008BD000000008C0A0020C4B900082F
:1001500081F0004102E000BF83F0004330B54FEA78
:1001600041044FEA430594EA050F08BF90EA020FE5
:100170001FBF54EA000C55EA020C7FEA645C7FEA78
:10018000655C00F0E2804FEA5454D4EB5555B8BF9B
:100190006D420CDD2C4480EA020281EA030382EA0C
:1001A000000083EA010180EA020281EA0303362D9E
:1001B00088BF30BD11F0004F4FEA01314FF4801C71
:1001C0004CEA113102D0404261EB410113F0004F83
:1001D0004FEA03334CEA133302D0524263EB43033A
:1001E00094EA050F00F0A780A4F10104D5F1200ED8
:1001F0000DDB02FA0EFC22FA05F2801841F1000133
:1002000003FA0EF2801843FA05F359410EE0A5F106
:1002100020050EF1200E012A03FA0EFC28BF4CF037
:10022000020C43FA05F3C01851EBE37101F00045ED
:1002300007D54FF0000EDCF1000C7EEB00006EEBFA
:100240000101B1F5801F1BD3B1F5001F0CD3490884
:100250005FEA30004FEA3C0C04F101044FEA4452DB
:1002600012F5800F80F09A80BCF1004F08BF5FEA62
:10027000500C50F1000041EB045141EA050130BD42
:100280005FEA4C0C404141EB0101013C28BFB1F554
:10029000801FE9D291F0000F04BF01460020B1FA9F
:1002A00081F308BF2033A3F10B03B3F120020CDA72
:1002B0000C3208DD02F1140CC2F10C0201FA0CF050
:1002C00021FA02F10CE002F11402D8BFC2F1200CB5
:1002D00001FA02F120FA0CFCDCBF41EA0C0190406B
:1002E000E41AA2BF01EB0451294330BD6FEA0404B4
:1002F0001F3C1CDA0C340EDC04F11404C4F120029F
:1003000020FA04F001FA02F340EA030021FA04F3B0
:1003100045EA030130BDC4F10C04C4F1200220FA07
:1003200002F001FA04F340EA0300294630BD21FA45
:1003300004F0294630BD94F0000F83F4801306BF0B
:1003400081F480110134013D4EE77FEA645C18BFFF
:100350007FEA655C29D094EA050F08BF90EA020F96
:1003600005D054EA000C04BF1946104630BD91EA8E
:10037000030F1EBF0021002030BD5FEA545C05D191
:100380004000494128BF41F0004130BD14F58004D0
:100390003CBF01F5801130BD01F0004545F0FE4144
:1003A00041F470014FF0000030BD7FEA645C1ABF79
:1003B000194610467FEA655C1CBF0B46024650EAB0
:1003C000013406BF52EA033591EA030F41F40021DC
:1003D00030BD00BF90F0000F04BF0021704730B562
:1003E0004FF4806404F132044FF000054FF0000137
:1003F00050E700BF90F0000F04BF0021704730B5F8
:100400004FF4806404F1320410F0004548BF4042CC
:100410004FF000013EE700BF42004FEAE2014FEA21
:1004200031014FEA02701FBF12F07F4393F07F4FFC
:1004300081F06051704732F07F4208BF704793F0FF
:100440007F4F04BF41F40021704730B54FF4607412
:1004500001F0004521F000411CE700BF50EA010215
:1004600008BF704730B54FF000050AE050EA0102BE
:1004700008BF704730B511F0004502D5404261EB2E
:1004800041014FF4806404F132045FEA915C3FF46F
:10049000D8AE4FF003025FEADC0C18BF03325FEA0C
:1004A000DC0C18BF033202EBDC02C2F1200300FABD
:1004B00003FC20FA02F001FA03FE40EA0E0021FAE2
:1004C00002F11444BDE600BF70B54FF0FF0C4CF4D0
:1004D000E06C1CEA11541DBF1CEA135594EA0C0F82
:1004E00095EA0C0F00F0DEF82C4481EA030621EABD
:1004F0004C5123EA4C5350EA013518BF52EA0335F8
:1005000041F4801143F4801338D0A0FB02CE4FF0A9
:100510000005E1FB02E506F00042E0FB03E54FF0D9
:100520000006E1FB03569CF0000F18BF4EF0010ED1
:10053000A4F1FF04B6F5007F64F5407404D25FEACD
:100540004E0E6D4146EB060642EAC62141EA555180
:100550004FEAC52040EA5E504FEACE2EB4F1FD0CC2
:1005600088BFBCF5E06F1ED8BEF1004F08BF5FEA40
:10057000500E50F1000041EB045170BD06F00046F2
:1005800046EA010140EA020081EA0301B4EB5C049F
:10059000C2BFD4EB0C0541EA045170BD41F4801197
:1005A0004FF0000E013C00F3AB8014F1360FDEBFBC
:1005B000002001F0004170BDC4F10004203C35DA98
:1005C0000C341BDC04F11404C4F1200500FA05F31B
:1005D00020FA04F001FA05F240EA020001F00042BC
:1005E00021F0004110EBD37021FA04F642EB060132
:1005F0005EEA430E08BF20EAD37070BDC4F10C045C
:10060000C4F1200500FA04F320FA05F001FA04F21F
:1006100040EA020001F0004110EBD37041F100010B
:100620005EEA430E08BF20EAD37070BDC4F1200516
:1006300000FA05F24EEA020E20FA04F301FA05F27E
:1006400043EA020321FA04F001F0004121FA04F226
:1006500020EA020000EBD3705EEA430E08BF20EAF6
:10066000D37070BD94F0000F0FD101F00046400030
:1006700041EB010111F4801F08BF013CF7D041EAB2
:10068000060195F0000F18BF704703F000465200B6
:1006900043EB030313F4801F08BF013DF7D043EA87
:1006A0000603704794EA0C0F0CEA135518BF95EA3D
:1006B0000C0F0CD050EA410618BF52EA4306D1D1C4
:1006C00081EA030101F000414FF0000070BD50EAE3
:1006D000410606BF1046194652EA430619D094EA6D
:1006E0000C0F02D150EA013613D195EA0C0F05D157
:1006F00052EA03361CBF104619460AD181EA0301AB
:1007000001F0004141F0FE4141F470014FF0000062
:1007100070BD41F0FE4141F4780170BD70B54FF0FD
:10072000FF0C4CF4E06C1CEA11541DBF1CEA13557D
:1007300094EA0C0F95EA0C0F00F0A7F8A4EB05045F
:1007400081EA030E52EA03354FEA013100F0888056
:100750004FEA03334FF0805545EA131343EA12631F
:100760004FEA022245EA111545EA10654FEA0026D4
:100770000EF000419D4208BF964244F1FD0404F58D
:10078000407402D25B084FEA3202B61A65EB0305E9
:100790005B084FEA32024FF480104FF4002CB6EBA6
:1007A000020E75EB030E22BFB61A754640EA0C0026
:1007B0005B084FEA3202B6EB020E75EB030E22BF66
:1007C000B61A754640EA5C005B084FEA3202B6EBA7
:1007D000020E75EB030E22BFB61A754640EA9C0066
:1007E0005B084FEA3202B6EB020E75EB030E22BF36
:1007F000B61A754640EADC0055EA060E18D04FEAF4
:10080000051545EA16754FEA06164FEAC30343EA93
:1008100052734FEAC2025FEA1C1CC0D111F4801F60
:100820000BD141EA00014FF000004FF0004CB6E759
:1008300011F4801F04BF01430020B4F1FD0C88BFF8
:10084000BCF5E06F3FF6AFAEB5EB030C04BFB6EB03
:10085000020C5FEA500C50F1000041EB045170BDF6
:100860000EF0004E4EEA113114EB5C04C2BFD4EB23
:100870000C0541EA045170BD41F480114FF0000EA7
:10088000013C90E645EA060E8DE60CEA135594EA23
:100890000C0F08BF95EA0C0F3FF43BAF94EA0C0F26
:1008A0000AD150EA01347FF434AF95EA0C0F7FF49B
:1008B00025AF104619462CE795EA0C0F06D152EAEF
:1008C00003353FF4FDAE1046194622E750EA4106D3
:1008D00018BF52EA43067FF4C5AE50EA41047FF4E4
:1008E0000DAF52EA43057FF4EBAE12E74FF0FF3C49
:1008F00006E000BF4FF0010C02E000BF4FF0010C1A
:100900004DF804CD4FEA410C7FEA6C5C4FEA430C92
:1009100018BF7FEA6C5C1BD001B050EA410C0CBFE1
:1009200052EA430C91EA030F02BF90EA020F002043
:10093000704710F1000F91EA030F58BF994208BFAA
:1009400090422CBFD8176FEAE37040F00100704767
:100950004FEA410C7FEA6C5C02D150EA013C07D1BE
:100960004FEA430C7FEA6C5CD6D152EA033CD3D009
:100970005DF8040B704700BF8446104662468C4603
:100980001946634600E000BF01B5FFF7B7FF002836
:1009900048BF10F1000F01BD4DF808EDFFF7F4FF5F
:1009A0000CBF012000205DF808FB00BF4DF808EDEA
:1009B000FFF7EAFF34BF012000205DF808FB00BF0D
:1009C0004DF808EDFFF7E0FF94BF012000205DF82F
:1009D00008FB00BF4DF808EDFFF7CEFF94BF0120E4
:1009E00000205DF808FB00BF4DF808EDFFF7C4FFDD
:1009F00034BF012000205DF808FB00BF4FEA410230
:100A000012F5001215D211D56FF47873B3EB625260
:100A100012D94FEAC12343F0004343EA505311F087
:100A2000004F23FA02F018BF404270474FF0000019
:100A3000704750EA013005D111F0004008BF6FF057
:100A4000004070474FF00000704700BF844641EA05
:100A5000000313F0030349D1403A23D30B6803602A
:100A60004B6843608B688360CB68C3600B6903612C
:100A70004B6943618B698361CB69C3610B6A036214
:100A80004B6A43628B6A8362CB6AC3620B6B0363FC
:100A90004B6B43638B6B8363CB6BC36340304031E1
:100AA000403ADBD230320BD30B6803604B684360B3
:100AB0008B688360CB68C36010301031103AF3D27A
:100AC0000C3205D351F8043B40F8043B043AF9D208
:100AD000043208D0D2071CBF11F8013B00F8013BDB
:100AE00001D30B8803806046704700BF082A13D3E8
:100AF0008B07B1D010F00303AED0C3F10403D21AB8
:100B0000DB071CBF11F8013B00F8013BA4D331F80F
:100B1000023B20F8023B9FE7043AD9D3013A11F88F
:100B2000013B00F8013BF9D20B7803704B7843701E
:100B30008B788370604670474FEA410C7FEA6C5CAB
:100B400002D150EA013C0AD14FEA430C7FEA6C5CC7
:100B500002D152EA033C02D14FF0000070474FF03F
:100B60000100704753B94AB9002908BF00281CBFCB
:100B70004FF0FF314FF0FF3000F076B9ADF1080CC7
:100B80006DE904CE00F006F8DDF804E0DDE90223AB
:100B900004B070472DE9F047089E0D46044688468C
:100BA000002B4DD18A42944668D9B2FA82F252B1F2
:100BB00001FA02F3C2F1200120FA01F10CFA02FC61
:100BC00041EA030894404FEA1C41B8FBF1F71FFAD1
:100BD0008CFE01FB178807FB0EF0230C43EA084349
:100BE00098420AD91CEB030307F1FF3580F01E8100
:100BF000984240F21B81023F63441B1AB3FBF1F0A1
:100C000001FB103300FB0EFEA4B244EA0344A645E8
:100C10000AD91CEB040400F1FF3380F00981A645DA
:100C200040F20681644402380021A4EB0E0440EA3D
:100C300007401EB10023D440C6E90043BDE8F08759
:100C40008B4208D9002E00F0EE800021C6E9000595
:100C50000846BDE8F087B3FA83F100294AD1AB42D8
:100C600002D3824200F2FC80841A65EB0303012068
:100C70009846002EE2D0C6E90048DFE702B9FFDE61
:100C8000B2FA82F2002A40F09180A1EB0C0001211F
:100C90004FEA1C471FFA8CFEB0FBF7F307FB13006B
:100CA000250C45EA00450EFB03F0A84208D91CEBD1
:100CB000050503F1FF3802D2A84200F2CE80434678
:100CC0002D1AB5FBF7F007FB10550EFB00FEA4B282
:100CD00044EA0544A64508D91CEB040400F1FF359D
:100CE00002D2A64500F2B6802846A4EB0E0440EAE4
:100CF00003409EE7C1F120078B4022FA07FC4CEA33
:100D0000030C25FA07FA4FEA1C49BAFBF9F820FA56
:100D100007F309FB18AA8D401FFA8CFE1D4300FA49
:100D200001F308FB0EF02C0C44EA0A44A04202FA3C
:100D300001F20BD91CEB040408F1FF3A80F0888023
:100D4000A04240F28580A8F102086444241AB4FB52
:100D5000F9F009FB104400FB0EFEADB245EA044475
:100D6000A64508D91CEB040400F1FF356CD2A6455A
:100D70006AD90238644440EA0840A0FB0295A4EB1B
:100D80000E04AC42C846AE4656D353D0002E69D0AE
:100D9000B3EB080264EB0E0422FA01F304FA07F73E
:100DA0001F43CC40C6E90074002147E70CFA02FC5F
:100DB000C2F1200125FA01F34FEA1C4720FA01F1A4
:100DC00095400D43B3FBF7F107FB11331FFA8CFE7F
:100DD000280C40EA034001FB0EF3834204FA02F4BC
:100DE00008D91CEB000001F1FF382FD283422DD926
:100DF00002396044C01AB0FBF7F307FB1300ADB231
:100E000045EA004503FB0EF0A84208D91CEB050596
:100E100003F1FF3816D2A84214D9023B6544281AC0
:100E200043EA014138E73146304607E72F46E4E61A
:100E30001846F9E64B45A9D2B9EB020865EB0C0E52
:100E40000138A3E74346EAE7284694E74146D1E75D
:100E5000D0467BE76444023847E7023B65442FE70E
:100E6000084606E73146E9E6704700BF00B585B0A1
:100E700000230193029303931048114A0260836098
:100E8000037303754FF46022C26143600123036161
:100E900002F0F0F860B90123019302930023039359
:100EA00001A9064802F018F828B905B05DF804FB5E
:100EB00000F028FEEFE700F025FEF6E7A40A002088
:100EC0000024014000B587B00023029303930493EC
:100ED00005930268114B9A4202D007B05DF804FBFB
:100EE00003F56C439A6942F400729A619A6902F4BC
:100EF00000720092009A9A6942F004029A619B691A
:100F000003F004030193019B022302930323039341
:100F100002A9034802F09EF9DFE700BF0024014068
:100F20000008014070B42B4C25462B4E0FCE0FC548
:100F30000FCE0FC50FCE0FC596E8030085E803005E
:100F400004F13805254E0FCE0FC50FCE0FC50FCEBD
:100F50000FC596E8030085E8030004F1E005204E84
:100F60000FCE0FC50FCE0FC50FCE0FC596E80300ED
:100F700085E8030004F170051A4E0FCE0FC50FCEA1
:100F80000FC50FCE0FC596E8030085E8030004F1F6
:100F9000A80C154D0FCDACE80F000FCDACE80F003D
:100FA0000FCDACE80F0095E803008CE8030004F5D2
:100FB0008C7C0E4C0FCCACE80F000FCCACE80F00D3
:100FC0000FCCACE80F0094E803008CE8030070BC81
:100FD000704700BFD80A0020E0B9000818BA00081E
:100FE00050BA000888BA0008C0BA0008F8BA000869
:100FF00030B505460A2917D8C1EBC1018646124B08
:1010000003EBC10CBCE80F00AEE80F00BCE80F001A
:10101000AEE80F00BCE80F00AEE80F009CE803004C
:101020008EE80300284630BD8446084C0FCCACE85F
:101030000F000FCCACE80F000FCCACE80F0094E829
:1010400003008CE80300EDE7D80A0020080D00201B
:1010500070B588B0002404940594069407943B4B23
:101060009A6942F010029A619A6902F010020092A5
:10107000009A9A6942F020029A619A6902F020026D
:101080000192019A9A6942F004029A619A6902F007
:1010900004020292029A9A6942F008029A619B69DC
:1010A00003F008030393039B294D22464FF400618C
:1010B000284602F0E8F94FF46043049303260596AE
:1010C00004A9244802F0C6F849F2FD0304930596EA
:1010D00004A9284602F0BEF841F2FF3304930596B6
:1010E00004A91D4802F0B6F84FF4A06304931B4B0B
:1010F0000593069404A9284602F0ACF84FF4007357
:1011000004930594069404A9284602F0A3F84FF42A
:10111000006304930123059306940223079304A913
:10112000284602F097F822462146172002F038F8A8
:10113000172002F06DF822462146282002F030F8F0
:10114000282002F065F808B070BD00BF0010024012
:101150000008014000100140000C01400000111087
:1011600008B50B480B4B03600B4B436000238360B7
:10117000C3604FF48042026143618361C3610362D3
:1011800002F0F0FA00B908BD00F0BCFCFBE700BFBC
:10119000400D002000580040801A060010B586B0AF
:1011A000002302930393049305930268114B9A4220
:1011B00001D006B010BD104CA36943F00803A36131
:1011C000A36903F008030093009B4FF4406302936C
:1011D000122303930323059302A9084802F03AF867
:1011E000E36943F48003E361E36903F4800301935B
:1011F000019BDEE70058004000100240000C014057
:101200000138062825D8DFE800F00408180C10146F
:101210001E00134B01225A707047114B02225A7064
:1012200070470F4B03225A7070470D4B04225A70BF
:1012300070470B4B05225A707047094B00221A70F9
:1012400001225A707047064B00221A7002225A700F
:101250007047034B01221A7000225A70704700BF7A
:10126000940D0020042802D8014B83F82300704716
:10127000980D00200B2800D9704710B58EB001469C
:101280006846FFF7B5FE074C04F1100C06AB0FCB18
:101290008CE80F000EAB13E90F0084E80F000EB0CE
:1012A00010BD00BF980D0020F8B505460F46164644
:1012B0000C7800F02FFDB0F1FF3F0ED00123234446
:1012C0005BB2AB420CDB6B1E5BB23B703278511DE4
:1012D000994209DA01323270F8BD4FF0FF33EEE780
:1012E000002BF2DA0023F0E79A42F5DD013A327082
:1012F000F2E72DE9F04106460F4615461C46D0F8A8
:10130000008000F007FDB0F1FF3F0BD004EB840339
:101310005B004344AB4202DCBB4205DB1D4635604B
:10132000BDE8F0816342F4E73D46F8E700B583B0DD
:1013300009781378C91A01EB810149000231800054
:101340000230064B00930723082201F0FE0100F053
:10135000FE0001F0EDFA03B05DF804FB4CC200089A
:101360002DE9F04105460C461646002200231F4990
:10137000D1E90001FFF738FBA8B34E221C492846EB
:1013800003F0A8F91B4F3B462A463146622001F084
:101390006BFADFF85880B8F908201749284603F09F
:1013A00099F93B462A463146204601F05DFA04444D
:1013B000E4B2F11E3B46114AC9B2204601F054FA8C
:1013C0000444E4B298F80B3098F80A200C492846F7
:1013D00003F080F902343B462A463146E0B201F080
:1013E00043FABDE8F0815322C8E700BF980D002002
:1013F00030BB00088CBE000834BB00083CBB0008B2
:1014000040BB000870B582B006460C461546084A37
:10141000937E0093537E127E064903F05BF9064BE0
:1014200032462946204601F01FFA02B070BD00BFC7
:10143000980D00204CBB00088CBE000810B5282079
:1014400001F00BFC202001F07BFC0C2001F0F7FBED
:10145000032001F012FC0E4C2146062001F014FC82
:101460002146002001F010FC062001F05DFC0A215D
:10147000092001F0F8FB002001F06EFC002001F0D3
:10148000D0FB01F090FC022001F0BAFB10BD00BFC0
:10149000E4C60008202901D90020704710B501F0EA
:1014A00095FC044601F06BFC4FF4FA7001F000FD6E
:1014B000012C05D0032C05D101F066FC002002E0D0
:1014C000012000E0002010BD08B5124B00229A70E8
:1014D0005A70114B5B78012B0BD0022B11D013B13A
:1014E00000F02AFC08BD0C4B02221A70FFF788FEA0
:1014F000F6E7094B01221A7000225A70FFF7BAFE74
:10150000EEE7054B01221A7000225A70FFF7AAFE7F
:10151000E6E700BF20000020940D002008B500F091
:101520000BFC18B1024B00221A705A7008BD00BFA4
:10153000940D002008B500F0FFFB18B1024B00220B
:101540001A705A7008BD00BF940D002070B5114B81
:101550005B78012B0ED0022B11D033B100252C4625
:101560002E4600F0FBFB78B970BD0B4C651C0234B5
:101570000826F6E7084C651C02340B26F1E7064CFA
:10158000651C02340426ECE72A4621463046FFF764
:101590008BFEE9E7940D00202000002010B586B0F6
:1015A00000F052FE21236C221946122000F00CFF9D
:1015B000134C2346134A04212E2001F055F9102222
:1015C000142103A8FFF7CCFE23460F4A24212E2026
:1015D00001F04AF93022192103A8FFF713FF0B4B42
:1015E00093F823200A4B53F82230009310231A4615
:1015F0001A216F2001F09CF900F03AFE06B010BDF0
:10160000A8BC00085CBB000864BB0008980D002063
:1016100054C6000870B500F0A7FB064600F014FEA3
:1016200000242546052C16D8124B5A782A44082A3D
:1016300011D004EB8401490002310F4B0F4850F8E0
:10164000222001F0FE010C2001F00EF90135EDB26F
:101650000134E4B2E6E707494A1C02313046FFF79D
:1016600065FE00F005FE06B970BD142001F020FCF7
:10167000FAE700BF20000020A8BC000800000020FE
:1016800070B58EB000F070FB064600F0DDFD002462
:101690002546052C18D8144B59786B180B2B13D0F2
:1016A000D9B26846FFF7A4FC04EB8401490002317B
:1016B0000E4B6A4601F0FE010C2001F0D5F8013511
:1016C000EDB20134E4B2E4E707494A1C0231304686
:1016D000FFF72CFE00F0CCFD0EB90EB070BD14204B
:1016E00001F0E6FBF9E700BF20000020A8BC0008DD
:1016F00070B500F039FB064600F0A6FD0024254633
:10170000052C16D8124B5A782A44042A11D004EB1F
:101710008401490002310F4B0F4850F8222001F09C
:10172000FE010C2001F0A0F80135EDB20134E4B265
:10173000E6E707494A1C02313046FFF7F7FD00F0A3
:1017400097FD06B970BD142001F0B2FBFAE700BFA7
:1017500020000020A8BC0008240000200000000099
:101760002DE9F04F87B0044667A3D3E90023684909
:10177000D1E90001FEF7A8FE8046894600250395C1
:101780000495CDF8135000F05FFD624B624A52F8A9
:1017900024200221084601F067F80B226C2128461C
:1017A00000F0CCFD013C042C5FD8DFE804F00363BB
:1017B0006E7C8A001422114603A8FFF7D1FD0A228D
:1017C0002C21402000F07CFE4046494608F010FFE6
:1017D00006460F464046494608F05CFF04460D4663
:1017E00000224E4B30463946FEF76EFE00224C4B2F
:1017F000FEF7B4FC82468B460022484B2046294621
:10180000FEF762FE0022474BFEF7A8FC80468946A1
:101810000022454B30463946FEF756FE0022404B2B
:10182000FEF79CFC06460F4600223F4B2046294609
:10183000FEF74AFE00223B4BFEF790FCFFF7DEF876
:1018400005B230463946FFF7D9F806B24046494658
:10185000FFF7D4F804B250465946FFF7CFF82B46AD
:101860003246214600B200F0AFFD00F001FD07B0A6
:10187000BDE8F08F14221A2103A8FFF7C3FD0A2246
:101880002C21402000F01CFEEFE7214B93F8202094
:10189000264903A802F01EFF254B03AA1E212E2075
:1018A00000F0E2FFE1E71A4B93F82120214903A859
:1018B00002F010FF1E4B03AA1E212E2000F0D4FFC1
:1018C000D3E7134B93F82230C3B91B4B93E80300C3
:1018D0000390ADF81010164B03AA1E211A2000F039
:1018E000C3FF0B4B93F8223053B9144B00931823CA
:1018F0001A461946502001F01BF8B6E7104BE5E7F1
:10190000104BF3E7AFF30080399D52A246DF913FC1
:10191000980D0020A8BC00083400002000001C40E6
:10192000000050400000464000002C407CBB0008F6
:101930008CBE000884BB000874BB0008E8C6000821
:101940006CBB000830C70008F0B583B0644B5B780F
:10195000013B042B15D8DFE803F00316252D3500D5
:10196000604C5DA3D3E90023D4E90001FEF7ACFD90
:10197000FFF744F801900A255B4F5C4E00F0EEF94A
:1019800040BB03B0F0BD574C53A3D3E90023F4E9A7
:101990000401FEF799FDFFF731F801900A25544F35
:1019A0000026EBE74F4C14F8203F019305256427F0
:1019B0000026E3E74B4C14F8213F01930525FF2750
:1019C0000026DBE7474C14F8223F019301252F4600
:1019D0000026D3E72B463A46314601A8FFF789FC9B
:1019E0003F4B5B78012B04D0022B3BD0019B236043
:1019F000C7E70198FEF7FEFC37A3D3E90023FEF703
:101A00008DFEC4E90001019B002BB8BF5B4201932E
:101A1000384981FB03211944DA17C2EBE12136482A
:101A200080FB01504518C817C0EB25204FF4B47552
:101A300005FB10102081314981FB03501844C2EB93
:101A4000601281FB02018818D117C1EB6011C1EB54
:101A50000111A2EB8101A172C2EB0212A3EB82027F
:101A6000E2728EE70198FEF7C5FC1BA3D3E90023C1
:101A7000FEF754FEC4E90001019B002BB8BF5B4296
:101A800001931C4981FB03211944DA17C2EBE121C0
:101A90001B4D85FB0105C817C0EBA50000EB4000FE
:101AA000A1EBC0002072154981FB03501844C2EB22
:101AB000601281FB02018818D117C1EB6011C1EBE4
:101AC0000111A2EB81016172C2EB0212A3EB82024F
:101AD000A27256E7AFF30080000000000020AC4087
:101AE000940D0020980D0020A0F10400600EFBFF73
:101AF0007F510100C5B3A291B7600BB68988888871
:101B0000ABAAAA2A72B6FEE700B595B0282200213A
:101B10000DEB020002F08CFD002305930693079362
:101B200008930993019302930393049301220A9269
:101B30004FF480330B930E920222119212934FF4C2
:101B4000E01313930AA801F0BDFFC8B90F23059352
:101B500002210691002307934FF4806208920993B3
:101B600005A802F0EFF968B9022301934FF400438E
:101B7000039301A802F0B2FA30B915B05DF804FB86
:101B8000FFF7C0FFFFF7BEFFFFF7BCFF30B585B022
:101B900001F06AF9FFF7B8FFFFF75AFAFFF766F9A5
:101BA000FFF7DEFA00F0E6F80024ADF80C408DF8FF
:101BB0000E4000F081FBFFF741FCFFF7B3F941480D
:101BC00000F0F0FE00F054FB4FF4FA6001F070F901
:101BD0001CE00134A4B200F037FB3B4D2B463B4ADE
:101BE0001821142000F040FE2B46394A28211420E9
:101BF00000F03AFE2B4622462821552000F058FEE0
:101C000000F036FB4FF47A7001F052F900F0D4FF87
:101C10000028DED02F4A01AB92E8030083E80300DE
:101C200025E0FFF793FC2C4B5B78012B05D0022BB2
:101C300006D023BBFFF7EEFC21E0FFF721FD1EE0FD
:101C4000FFF756FD1BE0FFF77FFE234B5878FFF7A9
:101C500087FD14E0FFF7A2FC082101A8FFF71AFC9A
:101C60000DE09DF80D3003BB9DF80E301BBB1A4BE9
:101C70001B78012BEED0022BE5D0002BD1D0164BD8
:101C80001C7800F071F804F110030DEB030404F864
:101C9000040C9DF80C30002BE3D0104B9878FFF724
:101CA00013FC00238DF80C30E1E7FFF737FC00232D
:101CB0008DF80D30DBE7FFF73DFC00238DF80E308B
:101CC000D5E700BF54C200088CBE000888BB0008DE
:101CD00098BB0008A4BB0008940D00202000002041
:101CE00008B54FF40071064801F0C6FB012804D086
:101CF0004FF0FF32034B1A7008BD0122FAE700BF14
:101D000000080140C00D0020014B01225A707047AD
:101D1000C00D002010B5074B1C7864B20CB92046EA
:101D200010BD1C7864B200221A70192001F0C0F8AE
:101D3000F5E700BFC00D002010B5074B5B7803F03E
:101D4000FF040BB9204610BD034B00225A7032200D
:101D500001F0AEF8F6E700BFC00D0020014B187887
:101D600040B27047C00D0020014B5878704700BF4B
:101D7000C00D002008B50E480E4B03604FF482736F
:101D8000436000238360C360036143614FF40072CA
:101D900082612022C2610362436283620A23C362BA
:101DA00002F0A4FA00B908BDFFF7ACFEFBE700BFE4
:101DB000C40D00200038004010B586B00023029307
:101DC0000393049305930268174B9A4201D006B01F
:101DD00010BD03F5EC33DA6942F48042DA61DA6966
:101DE00002F480420092009A9A6942F008029A61D5
:101DF0009B6903F008030193019B4FF42043029376
:101E00000223039303230593084C02A9204601F003
:101E100021FA4FF48043029300230393049302A911
:101E2000204601F017FAD2E700380040000C0140CC
:101E300082B00E4B9A6942F001029A619A6902F0EF
:101E400001020092009ADA6942F08052DA61DB699D
:101E500003F080530193019B054A536823F0E0632C
:101E600043F00073536002B0704700BF001002409F
:101E700000000140FEE7FEE7FEE7FEE7FEE77047F1
:101E80007047704708B501F001F808BD08B54FF478
:101E9000807001F0FFFAFFF723FF08BD08B54FF48B
:101EA000806001F0F7FAFFF72FFF08BD01207047AF
:101EB00008B502F093FB162303604FF0FF3008BD16
:101EC00008B54FF0FF31FFF7F3FFFEE770B50C46A2
:101ED0001646002506E0AFF30080214601F8010B0D
:101EE00001350C46B542F6DB304670BD70B50C4688
:101EF0001646002504E014F8010BAFF3008001350D
:101F0000B542F8DB304670BD4FF0FF3070474FF4FC
:101F100000534B600020704701207047002070473D
:101F200010B503460C4A0D490D48006840B10C48F5
:101F300000680344521A934206D8094A136010BD40
:101F40000748084C0460F2E702F048FB0C230360EA
:101F50004FF0FF30F3E700BF005000200004000006
:101F60001C0E002070120020704700000C480D4924
:101F70000D4A002302E0D458C4500433C4188C42E4
:101F8000F9D30A4A0A4C002301E013600432A2424A
:101F9000FBD3FFF7E9FF02F027FBFFF7F7FD7047E0
:101FA00000000020880A00202CCE0008880A0020AB
:101FB00070120020FEE700004FEAD10C1E4B03EB2D
:101FC000CC13184401F00701012303FA01F1CBB24D
:101FD0001A490978012902D002291AD027E0DB43E7
:101FE000DBB208E0024612F801CB03EA0C0C80F8E1
:101FF00000C010460A46511EC9B2002AF2D17047ED
:10200000024612F801CB83EA0C0C80F800C010469F
:102010000A46511EC9B2002AF2D17047024612F890
:1020200001CB43EA0C0C80F800C010460A46511E52
:10203000C9B2002AF2D17047240E0020200E0020E1
:1020400070B54FEAD10C384B03EBCC1C0CEB000EF7
:1020500011F0070123D0C1F10803DBB2334CE45C7B
:102060009A4203D29E1AFF2535412C40304D2D78DF
:10207000012D07D0022D22D01CF800502C430CF863
:10208000004005E01CF8005025EA04040CF800406C
:102090009A4242D30EF1800E08390A44D2B2072A7E
:1020A0001AD9234B1B78012B0FD0022B25D0FF23ED
:1020B0000EF8803B083AD2B2072AF8D80CE01CF898
:1020C00000506C400CF80040E2E700230EF8803B23
:1020D000083AD2B2072AF8D8FAB102F00702154B33
:1020E0009B5C134A1278012A11D0022A16D09EF85E
:1020F000002013438EF800300FE09EF80030DB43E1
:102100000EF8803B083AD2B2072AF6D8E4E79EF8E8
:10211000002022EA03038EF8003070BD9EF80020F4
:1021200053408EF80030F8E7240E002090C70008D6
:10213000200E002098C7000800B585B000238DF858
:102140000C308DF80D000A230093022303AA782196
:10215000024801F0E5FB05B05DF804FB400D0020EE
:1021600000B583B002460B460A210091782103484E
:1021700001F0D6FB03B05DF804FB00BF400D00206A
:1021800008B5642000F094FEAE20FFF7D5FF0220D2
:10219000FFF7D2FF1020FFF7CFFF4020FFF7CCFF63
:1021A000B020FFF7C9FF8120FFF7C6FFFF20FFF730
:1021B000C3FFA120FFF7C0FFA420FFF7BDFFA620AB
:1021C000FFF7BAFFA820FFF7B7FF3F20FFF7B4FFE4
:1021D000AD20FFF7B1FF8B20FFF7AEFF3220FFF7F6
:1021E000ABFFC820FFF7A8FFD320FFF7A5FF002013
:1021F000FFF7A2FFD520FFF79FFFF020FFF79CFF1E
:10220000D920FFF799FF2A20FFF796FFDA20FFF782
:1022100093FF1220FFF790FFDB20FFF78DFF402098
:10222000FFF78AFF642000F043FEAF20FFF784FF32
:10223000642000F03DFE08BD08B518B1A520FFF7E9
:102240007BFF08BDA420FAE710B5002408E0802237
:102250000549064800EBC410FEF7F8FB0134E4B270
:10226000072CF4D910BD00BFA0C70008240E002021
:1022700038B5002418E00E4D80220E4901EBC41140
:10228000681CFEF7E3FBA4F15000C0B2FFF754FF57
:102290000220FFF751FF1020FFF74EFF8121284653
:1022A000FFF75EFF0134E4B2072CE4D938BD00BF6C
:1022B00054000020240E002008B5FFF761FF002025
:1022C000FFF7BAFFFFF7C0FFFFF7D2FF4FF4FA7036
:1022D00000F0EEFD08BD0000164B1B78013BDBB2A1
:1022E000012B12D9CB0800EBC31301F00701B3F5A2
:1022F000806F09D8012A0ED0022A14D0012088400C
:102300000D4AD15C0143D1547047C30801EBC3139C
:1023100000F00701EBE701208840074AD15C21EA81
:102320000001D154704701208840034AD15C4140EC
:10233000D1547047210E0020240E002008B5844699
:10234000084696468C4511D9ACEB010C5FFA8CF32C
:1023500003F1010C5FFA8CF2094B1B78013BDBB2F5
:10236000012B08D97146FFF727FE08BDA1EB0C032E
:10237000DBB26046ECE701467046FFF761FEF4E72A
:10238000210E002008B51346914211D9891ACAB20C
:102390000132D2B20B4991F800C00CF1FF3C5FFA58
:1023A0008CFCBCF1010F07D91946FFF749FE08BDA7
:1023B000531ADAB20B46EBE701461846FFF7FCFD6D
:1023C000F5E700BF210E00202DE9F84F04460D4629
:1023D00016461F46131A98B21BB27A1A91B212B25D
:1023E000002B1FDD4FF00108002A1EDD4FF0010910
:1023F000F3B11AB31FFA88F808FB00F290B212B2D8
:102400001FFA89F909FB01F399B21BB24FEA420B9B
:102410004FEA430A9A422DDB1FFA8AFAAAEB000719
:102420003FB213E04FF0FF38DEE74FF0FF39DFE750
:10243000FAB2E9B2E0B2FFF7A5FF3DE0EAB2F1B2CD
:10244000E0B2FFF77BFF37E057443FB2B4422DD0F4
:102450001A4B1A78E9B2E0B2FFF73EFF444424B2C7
:10246000002FF1DBAAEB0B039BB21F443FB24D449C
:102470002DB2EBE71FFA8BFBABEB010636B201E0A6
:102480005E4436B2BD4211D00C4B1A78E9B2E0B2CC
:10249000FFF722FF4D442DB2002EF1DBABEB0A0318
:1024A0009BB21E4436B2444424B2EBE7034B1A7885
:1024B000E9B2E0B2FFF710FFBDE8F88F200E002070
:1024C0002DE9F04F87B080460F460592C2F1010416
:1024D000C2EBC2335B001BB2049315B2784B1B886E
:1024E000013B1BB20193774B1B88013B1BB202934C
:1024F0000026039635E0194608EB0B00724B1A785C
:10250000C9B2C0B2FFF7E8FE4FE0A8EB0903002B09
:1025100009DBAA467B19019A934255DBA7EB0A0A0D
:10252000BAF1000F5ADAAA4608EB0503029A9A425A
:1025300008DD09EB0703019A934259DBA7EB090376
:10254000002B60DAA8EB0A0ABAF1000F09DB09EBED
:102550000703019A934261DBA7EB0909B9F1000F68
:1025600067DAAE4270DA002C08DB049A023293B2CA
:1025700012B204921C4424B2013D2DB2039A0232DD
:1025800093B212B203921C44013424B201361FFAF2
:1025900086FB36B2B14608EB0603029A9342B4DAE0
:1025A000AA467B19019A9342A5DBA7EB0A0ABAF166
:1025B000000FAADB791B08EB0B00434B1A78C9B25A
:1025C000C0B2FFF789FEA0E71946A8EB0B003E4B0F
:1025D0001A78C9B2C0B2FFF77FFE9FE7791BA8EB5C
:1025E0000B00394B1A78C9B2C0B2FFF775FE9AE7F3
:1025F00007EB0B0108EB0500334B1A78C9B2C0B2E8
:10260000FFF76AFE9AE7A7EB0B0108EB05002E4BDC
:102610001A78C9B2C0B2FFF75FFE93E707EB0B0170
:10262000A8EB0500284B1A78C9B2C0B2FFF754FED8
:1026300092E7A7EB0B01A8EB0500234B1A78C9B270
:10264000C0B2FFF749FE8CE7059B4344029A9342D0
:1026500010DB059AA8EB0203002B15DA059B3B441F
:10266000019A934218DB059ABB1A002B1EDA07B0B9
:10267000BDE8F08F059B03EB0800134B1A78F9B205
:10268000C0B2FFF729FEE4E718460F4B1A78F9B2FB
:10269000C0B2FFF721FEE1E7059BD9190A4B1A7872
:1026A000C9B25FFA88F0FFF717FEDCE71946064B60
:1026B0001A78C9B25FFA88F0FFF70EFED7E700BFBD
:1026C0005000002052000020200E00202DE9F84F7D
:1026D00080460F461E461B79934202D8717991427B
:1026E00000D2B279D21AB37803FB02620732F378D0
:1026F000002B59D17378082B21D9C2464EE04FEAFE
:102700005A0A0135EDB2BAF1000F09D01AF0010FE3
:10271000F5D0544B1A7829464846FFF7DDFDEEE721
:1027200009F101095FFA89F9224633784344994552
:1027300080F29380144614F801AB3D46E3E7C146AE
:10274000F3E75FEA5B0B10D009F101095FFA89F941
:10275000013CE4B264B11BF0010FF2D0414B1A7896
:1027600049465046FFF7B8FDEBE7A1445FFA89F907
:102770002A4673783B4499450CDA154615F801BB97
:10278000BBF1000F04D109F108095FFA89F9EFE7FD
:102790000824DFE70AF1010A5FFA8AFA3378434432
:1027A0009A455ADAB946E4E73378082B20D9BA4675
:1027B0004DE04FEA5A0A0135EDB2BAF1000F09D0E7
:1027C0001AF0010FF5D0274B1A7849462846FFF733
:1027D00083FDEEE709F101095FFA89F92246737872
:1027E0003B44994539DA144614F801AB4546E4E711
:1027F000B946F4E75FEA590912D00135EDB20BF1A1
:10280000FF3B5FFA8BFBBBF1000F0BD019F0010F00
:10281000F0D0144B1A7851462846FFF75DFDE9E7E2
:102820005D44EDB22246337843449D420BDA1446B0
:1028300014F8019BB9F1000F02D10835EDB2F1E7B0
:102840004FF0080BDFE70AF1010A5FFA8AFA7378A2
:102850003B449A4501DA4546E5E730780130C0B29D
:10286000BDE8F88F200E00202DE9F84388461F466A
:102870001B780E490E88F61AB2B18146F6B2013EB7
:10288000F6B2154604462A784AB101353B46414620
:102890002046FFF71BFF0444E4B2A642F3D2A4EBA8
:1028A000090080B2BDE8F8830020FBE75200002059
:1028B0002DE9F04184B007460D461E4600238DF8F1
:1028C0000430002A1DDB00200DF10504174B83FBAB
:1028D00002134FEAE27CCCEBA30C63460CEB8C0CAE
:1028E000A2EB4C0C214601340CF1300C81F800C0F5
:1028F0001A46002BEAD110B12D2323708C1CB84648
:102900000AE052420120DFE7334629464046FFF7FE
:10291000DDFE80445FFA88F814F8012D002AF3D117
:10292000A8EB0700C0B204B0BDE8F0816766666638
:102930002DE9F04F83B080468B46914601930C9E63
:102940008A461AE06D080FD00134E4B2072C19D87A
:1029500015F0010FF6D00AEB0401114B1A78C9B239
:102960003846FFF7B9FCEDE70137FFB20AE0002473
:10297000ECE70AF1080A5FFA8AFA019B5B449A4580
:102980000BDA474608EB09039F42F2DA16F8015BBF
:10299000002DECD10137FFB2F4E703B0BDE8F08FB2
:1029A000200E002008B501464FF480620148FEF772
:1029B0004DF808BD240E002030B585B00446002235
:1029C0004FF40061154800F05EFD04F01F048DF81F
:1029D0000E40134C0A25009501230DF10F020DF155
:1029E0000E01204601F0DDFCFF238DF80E3000952E
:1029F00001230DF10F020DF10E01204601F0D1FC73
:102A000050B99DF80F4001224FF40061034800F0D7
:102A10003AFD204605B030BD0024F4E7000801402F
:102A2000C40D0020F0B585B004460E4615460022C0
:102A30004FF40061184800F026FD8DF80E400A237F
:102A4000009301230DF10F020DF10E01134801F067
:102A5000A8FC03E00023337025463E466B1EDCB223
:102A600095B1771CFF238DF80E300A2300930123C4
:102A70000DF10F020DF10E01084801F092FC002843
:102A8000E8D19DF80F30E6E701224FF400610248DB
:102A900000F0F9FC05B0F0BD00080140C40D0020B5
:102AA00070B584B005460C46164600224FF400610E
:102AB000154800F0E8FC8DF80E500A23009301231E
:102AC0000DF10F020DF10E01104801F06AFC0EE04D
:102AD00014F8013B8DF80E300A23009301230DF109
:102AE0000F020DF10E01094801F05BFC2E46731E2A
:102AF000DDB2002EECD101224FF40061024800F05B
:102B0000C2FC04B070BD00BF00080140C40D00202D
:102B100070B584B004460D4600224FF4006124488D
:102B200000F0B1FC1F2C23D804F01F0444F0200453
:102B30008DF80E401F4C0A26009601230DF10F025E
:102B40000DF10E01204601F02CFC8DF80E50009680
:102B500001230DF10F020DF10E01204601F021FCC1
:102B600001224FF40061124800F08DFC04B070BDEA
:102B70008DF80E400A23009301230DF10F020DF191
:102B80000E010C4801F00DFC04F11F03DBB2022B17
:102B9000E6D9FF2CE4D08DF80E500A2300930123D0
:102BA0000DF10F020DF10E01024801F0FAFBD7E71B
:102BB00000080140C40D002010B582B00F4C052262
:102BC00021463020FFF76CFF052269461020FFF7F1
:102BD00029FF21460023042B0BD803F108026A4485
:102BE00012F8080C11F8012B904205D10133DBB229
:102BF000F1E7012002B010BD0020FBE720C800086B
:102C000010B504460020FFF7D7FE022C05D000F0D7
:102C1000FD010020FFF77CFF10BD40F00201C9B2AA
:102C2000F7E710B504460020FFF7C6FE00F0FE01EE
:102C300004F0010421430020FFF76AFF10BD10B526
:102C400004460020FFF7B8FE00F0F30104F00C0486
:102C500021430020FFF75CFF10BD08B501460520A9
:102C6000FFF756FF08BD08B501F00F0141EA00115A
:102C7000C9B20420FFF74CFF08BD08B50146032088
:102C8000FFF746FF08BD000070B584B006460D464C
:102C9000052839D802283BD2012837D80320FFF76E
:102CA0008BFE441CE4B2254400224FF400611B4813
:102CB00000F0E9FB1A4B9B5D43F020038DF80E30CA
:102CC0000A23009301230DF10F020DF10E011548A7
:102CD00001F067FB2B78013D8DF80E300A2300933D
:102CE00001230DF10F020DF10E010E4801F059FB09
:102CF0002346013CE4B2002BECD101224FF40061E9
:102D0000064800F0C0FB01E00628C7D004B070BD43
:102D10000978034B185CFFF7FBFEF7E7000801405A
:102D200028C80008C40D002010B504460620FFF78F
:102D300043FE00F0F90121430620FFF7E9FE10BD34
:102D400010B504460620FFF737FE00F0D7012143F7
:102D50000620FFF7DDFE10BD10B504460120FFF789
:102D60002BFE012303FA04F40443E1B21846FFF7F3
:102D7000CFFE10BD08B50720FFF71EFE08BD08B541
:102D80000820FFF719FE08BD08B50520FFF714FE5F
:102D900001460520FFF7BCFE08BD08B5FF21E12074
:102DA000FFF7B6FE08BD08B50720FFF705FE40F0A7
:102DB0007001C9B20720FFF7ABFE08BD08B50A468F
:102DC0000146A020FFF76CFE08BD000010B582B0E0
:102DD000114B0193FFF7F2FFFFF7CCFF044610F011
:102DE000300F04D1019B5A1E0192002BF4D1019B9C
:102DF00063B1FFF7D8FF14F0100F0BD114F02004CB
:102E000001D0012403E0FFF7C8FF00E002242046C0
:102E100002B010BD0324FAE7FFFF0F0010B504460F
:102E20000E4B18784FF47A73B3FBF0F30C4A10682A
:102E3000B0FBF3F000F0FAF968B90F2C01D90120CA
:102E40000AE0002221464FF0FF3000F0A9F9054BBF
:102E50001C60002000E0012010BD00BFD500002054
:102E60004C000020D800002008B5074A136843F042
:102E700010031360032000F081F90F20FFF7CEFF4D
:102E8000FEF7D6FF002008BD00200240034A11686B
:102E9000034B1B780B441360704700BF24120020C3
:102EA000D5000020014B1868704700BF2412002095
:102EB00038B50446FFF7F6FF0546B4F1FF3F02D0F0
:102EC000044B1B781C44FFF7EDFF401BA042FAD3D4
:102ED00038BD00BFD500002030B482B0002201927E
:102EE00090F82420012A00F091800346012280F806
:102EF00024204A68062A2DD80468606B02EB8202FF
:102F0000053A4FF01F0C0CFA02FC20EA0C000D6889
:102F100005FA02F2024362630A68092A3AD91C6878
:102F2000E06802EB42021E3A4FF0070C0CFA02FC7A
:102F300020EA0C008D6805FA02F20243E2600A689A
:102F4000103A012A36D90020002283F8242002B04A
:102F500030BC70470C2A0ED80568286B02EB820241
:102F6000233A1F24944020EA04000C6804FA02F279
:102F700002432A63D0E70568E86A02EB8202413A1D
:102F80001F24944020EA04000C6804FA02F2024371
:102F9000EA62C1E71C68206902EB42024FF0070CAD
:102FA0000CFA02FC20EA0C008D6805FA02F20243DA
:102FB0002261C4E71A681648824205D09A6A42F034
:102FC00020029A620120BFE7906810F4000F1BD125
:102FD000906840F4000090600A68102A01D0002038
:102FE000B2E70C4A12680C49A1FB0212920C02EBE8
:102FF00082025200019202E0019A013A0192019A82
:10300000002AF9D100209FE700209DE702209EE7DB
:10301000002401404C00002083DE1B4338B50368C8
:103020009A6812F0010F01D1002038BD04469A6859
:1030300022F001029A60FFF735FF054623689B687E
:1030400013F0010F13D0FFF72DFF431B022BF5D90F
:1030500023689B6813F0010FF0D0A36A43F01003BC
:10306000A362E36A43F00103E3620120DDE700208D
:10307000DBE7000000287BD070B50446836A002B94
:103080004DD02046FFF7CAFFA36A13F0100369D1A1
:10309000002867D1A26A22F4885222F0020242F08C
:1030A0000202A2626268E1690A43217B42EA4102AC
:1030B000A568B5F5807F02D0012D36D01D46267D4E
:1030C000012E35D02668716821F469412943716069
:1030D0002568AE68274931401143A960A168B1F560
:1030E000807F01D0012902D12369013B1B0525689E
:1030F000E96A21F470010B43EB62236899681E4B67
:103100000B409A4225D0A36A23F0120343F0100328
:10311000A362E36A43F00103E362012027E0C36294
:1031200080F82430FDF7CEFEABE74FF48075C6E79C
:1031300031B9A169013945EA413141F40065C1E77E
:10314000A16A41F02001A162E16A41F00101E1625E
:10315000B8E70023E362A36A23F0030343F001030B
:10316000A36204E0A36A43F01003A362012070BDD0
:1031700001207047FDF7E1FFFE0E1FFF074AD368ED
:1031800023F4E0631B041B0C000200F4E060034323
:1031900043F0BF6343F40033D360704700ED00E0B9
:1031A00000B5194BDB68C3F30223C3F1070CBCF174
:1031B000040F28BF4FF0040C03F1040EBEF1060FFC
:1031C00018D9033B4FF0FF3E0EFA0CFC21EA0C012C
:1031D00099400EFA03F322EA0303194300280BDB9C
:1031E0000901C9B200F1604000F5614080F80013A8
:1031F0005DF804FB0023E5E700F00F000901C9B208
:10320000024B1954F4E700BF00ED00E014ED00E0BC
:10321000002807DB00F01F02400901239340024A07
:1032200042F82030704700BF00E100E00138B0F103
:10323000807F0BD24FF0E0235861054AF02182F8DD
:1032400023100020986107221A61704701207047FF
:1032500000ED00E070B582B00024A446A6E0804DE9
:10326000AA4210D007D97F4DAA420CD005F580356F
:10327000AA4208D013E0A5F58015AA4203D005F5AF
:103280007025AA4207D18A68002A58D0012A51D055
:103290004361082403E0A5F58015AA42F3D0BEF1EE
:1032A000FF0F4ED80646BEF1FF0F4CD84FEA8C02F6
:1032B00033680F25954023EA050304FA02F213430D
:1032C00033604B6813F0805F6ED0674B9A6942F0B1
:1032D00001029A619B6903F001030193019B4FEA8C
:1032E0009C02951C614B53F825600CF003039D0074
:1032F0000F23AB4026EA03065D4B984229D003F525
:103300008063984200F08E8003F58063984200F05D
:103310008B8003F58063984219D004231AE0CC68AF
:10332000BDE7CC680434BAE7CC680834B7E7CC68AA
:103330000C34B4E703610824B1E70024AFE70424A8
:10334000ADE7061DAFE7ACF108029200B0E703233A
:1033500000E00023AB4033430232444D45F82230B5
:103360004B6813F4803F61D0424A136843EA0E036E
:1033700013604B6813F4003F5ED03E4A536843EA43
:103380000E0353604B6813F4801F5BD0394A936877
:1033900043EA0E0393604B6813F4001F58D0354A7C
:1033A000D36843EA0E03D3600CF1010C0A6832FAC9
:1033B0000CF353D0012303FA0CF302EA030E33EAB1
:1033C0000202F1D14A68122A3FF649AF122A3FF6AB
:1033D00066AF01A555F822F0873200081F330008B8
:1033E000293300083B3300089F3200089F32000851
:1033F0009F3200089F3200089F3200089F32000869
:103400009F3200089F3200089F3200089F32000858
:103410009F3200089F3200089F32000823330008C3
:103420002F330008012395E7022393E7114A13681D
:1034300023EA0E0313609CE70E4A536823EA0E0347
:1034400053609FE70B4A936823EA0E039360A2E759
:10345000084AD36823EA0E03D360A5E702B070BD23
:103460000000221000003110001002400000014056
:1034700000080140000401408368194201D0012086
:103480007047002070470AB101617047090401616B
:103490007047704708B5054B5B69034200D108BD12
:1034A000024B5861FFF7F5FFF9E700BF0004014048
:1034B00003685A6912F4806F01D1002070476FF4DD
:1034C00080625A6100230363202280F83D2080F847
:1034D0003E30026C42F00402026480F83C3001206D
:1034E00070472DE9F04107460D4690461E4624E000
:1034F000FFF7D8FC069BC01AB04200D8EEB90023F3
:103500003B63202287F83D2087F83E303A6C42F03A
:1035100020023A6487F83C3001201EE03B689C6939
:1035200025EA040C1FFA8CFCBCFA8CFC4FEA5C1CEC
:10353000E04511D1B6F1FF3FDAD1C5F30743012BC6
:10354000ECD13B685B6925EA030C1FFA8CFCBCFAE2
:103550008CFC4FEA5C1CEBE70020BDE8F0812DE914
:10356000F04105460E46174698463DE01A6842F47B
:1035700000721A602B686FF480625A6100232B631B
:10358000202285F83D2085F83E302A6C42F0040266
:103590002A6485F83C30012034E0FFF783FCA0EB7F
:1035A0000800B84200D8FFB900232B63202285F819
:1035B0003D2085F83E302A6C42F020022A6485F8CE
:1035C0003C3001201EE02B689C6926EA0404A4B26A
:1035D000003C18BF0124A4B12B685A6912F4806F13
:1035E000C4D1B7F1FF3FD8D1C6F30743012BEAD1CD
:1035F0002B685C6926EA0404A4B2003C18BF0124CD
:10360000E9E70020BDE8F081F0B583B004460D463F
:1036100016461F46C36A082B0DD0012B0BD013F59D
:10362000803F08D0036B122B0AD10268136843F461
:103630008073136004E02268136843F4807313609E
:103640000097334600224FF001112046FFF749FF53
:1036500080B92369B3F5804F16D1236805F0FE05C4
:103660001D613B46324613492046FFF778FFF8B903
:1036700003B0F0BD23681B6813F4807F02D04FF4C1
:10368000007323640320F3E7EB11226803F00603C1
:1036900043F0F00313613B46324607492046FFF7EB
:1036A0005EFF18B92368EDB21D61DAE70120DFE79C
:1036B0000120DDE7020001000800010070B50446AA
:1036C0000D46164623685B6913F0800F1CD1204617
:1036D000FFF7EEFED0B9B5F1FF3FF3D0FFF7E2FB05
:1036E000801BA84201D8002DECD1002323632022A7
:1036F00084F83D2084F83E30226C42F0200222649F
:1037000084F83C30012000E0002070BD0120FCE77F
:1037100070B504460D46164623685B6913F0040F26
:103720001CD12046FFF7C4FED0B9B5F1FF3FF3D05E
:10373000FFF7B8FB801BA84201D8002DECD1002375
:103740002363202284F83D2084F83E30226C42F02E
:103750002002226484F83C30012000E0002070BD8B
:103760000120FCE7002800F0CC8070B5044690F8FA
:103770003D30002B77D0242384F83D302268136835
:1037800023F0010313602268136843F400431360BD
:103790002268136823F40043136000F08FFC626812
:1037A0005A4B9A4264D85A4B98428CBF002301234B
:1037B000002B40F0A8805749A1FB00318B0C2568F5
:1037C0006A6822F03F0242EA91426A6021680A6A0E
:1037D00022F03F0266684D4DAE424FD8013313438D
:1037E0000B622168CA6922F44F4222F0FF02666828
:1037F000464B9E424CD8431E7600B3FBF6F3013392
:1038000040F6FC70034278D0C3F30B031343CB6143
:1038100021680B6823F0C003E269206A0243134366
:103820000B6021688B6823F4034323F0FF032269B4
:10383000E068024313438B602168CB6823F0FF03E9
:103840006269A06902431343CB602268136843F0A6
:103850000103136000202064202384F83D3020639E
:1038600084F83E0070BD80F83C30FDF797FC82E79D
:10387000294B98428CBF0023012399E74FF496759A
:1038800005FB03F3254DA5FB03539B090133A6E775
:10389000A368BBB9451E06EB460CB5FBFCF501352C
:1038A000C5F30B05B5FA85F56D0945BBC3B90138FC
:1038B00006EB4603B0FBF3F30133C3F30B0343F40E
:1038C0000043A3E7451E06EB860C0CEB8C0CB5FB06
:1038D000FCF50135C5F30B05B5FA85F56D09E4E78F
:1038E000013806EB860303EB8303B0FBF3F30133EC
:1038F000C3F30B0343F4404388E7042386E7012323
:1039000084E7012070470120ACE700BFA0860100DA
:103910007F841E0083DE1B43FF083D00D34D6210F1
:103920002DE9F04385B004460F46914698460C9E1B
:10393000FFF7B8FA054694F83D00C0B2202804D03D
:103940000227384605B0BDE8F0830095192301220F
:103950004F492046FFF7C5FD002840F0928094F8BB
:103960003C30012B00F08F80012384F83C30236829
:103970001A6812F0010F03D11A6842F001021A60AE
:103980002268136823F400631360212384F83D3018
:10399000102384F83E3000232364C4F82490A4F854
:1039A0002A80638D23853B4BE3622B4632463946A2
:1039B0002046FFF729FE0746002866D1002303931F
:1039C00023685A6903929B690393039B11E0236C5C
:1039D000042B01D00127B4E72268136843F4007375
:1039E0001360F7E72A4631462046FFF791FE00288C
:1039F0002ED1238D002B36D02A4631462046FFF7A4
:103A00005DFE0028E3D1626A236812781A61606A59
:103A1000431C6362618D89B2013989B26185238D4E
:103A2000013B9BB223852268516911F0040FD9D064
:103A3000002BD7D043781361636A01336362638DCF
:103A40009BB2013B9BB26385238D013B2385C9E774
:103A5000236C042B01D0012773E72268136843F419
:103A600000731360F7E72268136843F40073136070
:103A7000202384F83D30002384F83E3084F83C3025
:103A80005FE702275DE702275BE7012759E700BFF1
:103A9000020010000000FFFF82B0084B1B68084ABC
:103AA000A2FB03235B0A00FB03F3019300BF019B0E
:103AB0005A1E0192002BF9D102B070474C00002031
:103AC000D34D6210002800F0F18170B582B0044639
:103AD000036813F0010F2CD0994B5B6803F00C03C3
:103AE000042B1DD0964B5B6803F00C03082B12D0FF
:103AF0006368B3F5803F41D0002B55D103F180437B
:103B000003F504331A6822F480321A601A6822F42A
:103B100080221A6037E08A4B5B6813F4803FE7D05D
:103B2000874B1B6813F4003F03D06368002B00F041
:103B3000BF81236813F0020F75D0814B5B6813F0CF
:103B40000C0F5FD07E4B5B6803F00C03082B54D046
:103B50002369002B00F08A807A4B01221A60FFF75C
:103B6000A1F90546764B1B6813F0020F75D1FFF7DC
:103B700099F9401B0228F5D903209EE1704A136889
:103B800043F480331360636843B3FFF78BF9054652
:103B90006B4B1B6813F4003FCBD1FFF783F9401B3D
:103BA0006428F5D9032088E1B3F5A02F09D0644B30
:103BB0001A6822F480321A601A6822F480221A608D
:103BC000E1E703F18043A3F53C331A6842F4802215
:103BD0001A601A6842F480321A60D4E7FFF762F97B
:103BE0000546574B1B6813F4003FA2D0FFF75AF964
:103BF000401B6428F5D903205FE1514B5B6813F447
:103C0000803FA5D14E4B1B6813F0020F03D02369F0
:103C1000012B40F04F814A4A136823F0F803616991
:103C200043EAC1031360236813F0080F33D0A3697C
:103C3000002B5CD0434B0122C3F88024FFF732F9FC
:103C400005463F4B5B6A13F0020F21D1FFF72AF9BB
:103C5000401B0228F5D903202FE1394A136823F0CD
:103C6000F803616943EAC1031360DCE7354B0022C6
:103C70001A60FFF717F90546314B1B6813F0020F66
:103C8000D1D0FFF70FF9401B0228F5D9032014E12A
:103C90000120FFF701FF236813F0040F00F0968066
:103CA000274BDB6913F0805F34D1254BDA6942F092
:103CB0008052DA61DB6903F080530193019B012597
:103CC000214B1B6813F4807F26D0E368012B3DD085
:103CD000002B53D103F1804303F504331A6A22F019
:103CE00001021A621A6A22F004021A6233E0154BCA
:103CF0000022C3F88024FFF7D5F80546104B5B6A15
:103D000013F0020FC7D0FFF7CDF8401B0228F5D9FA
:103D10000320D2E00025D3E70B4A136843F48073F5
:103D20001360FFF7BFF80646074B1B6813F4807F4C
:103D3000CBD1FFF7B7F8801B6428F5D90320BCE08E
:103D40000010024000004242007000405F4A136AC7
:103D500043F001031362E36833B3FFF7A3F80646A9
:103D60005A4B1B6A13F0020F2FD1FFF79BF8801BF1
:103D700041F288339842F3D903209EE0052B09D005
:103D8000524B1A6A22F001021A621A6A22F00402E5
:103D90001A62E0E74D4B1A6A42F004021A621A6A8C
:103DA00042F001021A62D6E7FFF77CF80646474B5D
:103DB0001B6A13F0020F08D0FFF774F8801B41F262
:103DC00088339842F3D9032077E0E5B9E369002B03
:103DD00072D03E4A526802F00C02082A56D0022BDA
:103DE00017D03B4B00221A66FFF75CF80446374BAE
:103DF0001B6813F0007F47D0FFF754F8001B022820
:103E0000F5D9032059E0314AD36923F08053D361B7
:103E1000DCE72F4B00221A66FFF744F805462B4BD0
:103E20001B6813F0007F06D0FFF73CF8401B022808
:103E3000F5D9032041E0236AB3F5803F1AD0234926
:103E40004B6823F47413226A606A024313434B6085
:103E50001F4B01221A66FFF725F804461B4B1B680F
:103E600013F0007F0ED1FFF71DF8001B0228F5D9D3
:103E7000032022E0154A536823F40033A1680B4362
:103E80005360DCE7002018E0002016E0012B16D07C
:103E90000E4B5B6803F48031226A914211D103F426
:103EA0007013626A93420ED1002006E00120704731
:103EB000012002E0012000E0002002B070BD0120DE
:103EC000FBE70120F9E70120F7E700BF00100240FF
:103ED0000000424286B0174B0FCB0DF1180C0CE9D5
:103EE0000F0040F20123ADF80430134B5B6803F080
:103EF0000C02082A02D0114806B07047C3F383426F
:103F000018326A4412F8100C13F4803F0DD00A4B9B
:103F10005B68C3F3404318336B4413F8143C074AFF
:103F200002FB00F0B0FBF3F0E6E7054B03FB00F00B
:103F3000E2E700BF30C800080010024000127A001B
:103F400000093D00002800F0A08070B50D46044631
:103F5000524B1B6803F007038B420BD24F4A136886
:103F600023F007030B431360136803F007038B422E
:103F700040F08D80236813F0020F17D013F0040F68
:103F800004D0474A536843F4E0635360236813F056
:103F9000080F04D0424A536843F460535360404AC8
:103FA000536823F0F003A1680B435360236813F0B8
:103FB000010F31D06368012B20D0022B25D0384A65
:103FC000126812F0020F64D035494A6822F00302E9
:103FD00013434B60FEF766FF0646314B5B6803F008
:103FE0000C036268B3EB820F16D0FEF75BFF801BF9
:103FF00041F288339842F0D9032045E0284A1268FC
:1040000012F4003FE0D101203EE0254A126812F090
:10401000007FD9D1012037E0204B1B6803F0070354
:10402000AB420AD91D4A136823F007032B431360E0
:10403000136803F00703AB422DD1236813F0040F7C
:1040400006D0174A536823F4E063E1680B435360DA
:10405000236813F0080F07D0114A536823F4605304
:10406000216943EAC1035360FFF734FF0C4B5B68DF
:10407000C3F303130B4AD35CD8400B4B18600B4BB4
:104080001868FEF7CBFE002070BD012070470120AC
:10409000FAE70120F8E70120F6E700BF0020024020
:1040A0000010024078C700084C000020D800002013
:1040B000014B1868704700BF4C00002008B5FFF79F
:1040C000F7FF044B5B68C3F30223034AD35CD84079
:1040D00008BD00BF0010024088C7000870B582B05C
:1040E0000446036813F0010F36D03F4BDB6913F031
:1040F000805F49D13C4BDA6942F08052DA61DB697A
:1041000003F080530193019B0125384B1B6813F486
:10411000807F3BD0344B1B6A13F4407313D062682A
:1041200002F440729A420ED02F4A136A23F4407070
:104130002F490126C1F840640026C1F8406410628E
:1041400013F0010F36D1284A136A23F440736168D3
:104150000B431362002D3ED1236813F0020F06D0EB
:10416000214A536823F44043A1680B4353602368FA
:1041700013F0100F34D01C4A536823F48003E16815
:104180000B43536000202CE00025BEE7174A13685C
:1041900043F480731360FEF785FE0646134B1B68DD
:1041A00013F4807FB6D1FEF77DFE801B6428F5D91D
:1041B000032016E0FEF776FE06460B4B1B6A13F053
:1041C000020FC0D1FEF76EFE801B41F28833984289
:1041D000F3D9032005E0D36923F08053D361BBE713
:1041E000002002B070BD00BF00100240007000400F
:1041F000000042422DE9F04782B005468846174646
:104200001E46FEF74FFE0A9B1B1A03EB0609FEF73C
:1042100049FE82462B4B1B68C3F3CB3309FB03F3E8
:1042200001932B689C6838EA04030CBF4FF0010C23
:104230004FF0000CBC4540D0B6F1FF3FF1D0FEF787
:1042400031FEA0EB0A0048450AD2B9F1000F07D0B1
:10425000019A02B14A46019B013B01939146E0E776
:104260002A68536823F0E00353606B68B3F5827FDC
:104270000BD0AB6AB3F5005F14D0012385F8513041
:10428000002385F85030032018E0AB68B3F5004FE9
:1042900002D0B3F5806FECD12A68136823F0400395
:1042A0001360E6E72A68136823F4005313602A6852
:1042B000136843F400531360DFE7002002B0BDE849
:1042C000F08700BF4C00002010B582B004460B46BA
:1042D000009200228021FFF78DFF08B902B010BDC7
:1042E000636D43F0200363650320F7E7002856D091
:1042F00010B50446436A33B94368B3F5827F05D0ED
:104300000023C36102E00023036143610023A36231
:1043100094F85130002B3CD0022384F851302268AD
:10432000136823F040031360636803F48273A26888
:1043300002F404421343E26802F400621343226968
:1043400002F002021343626902F001021343A26900
:1043500002F400721343E26902F038021343226A46
:1043600002F080021343A26A02F400522168134350
:104370000B60638B226803F0040353602268D369E7
:1043800023F40063D36100206065012384F8513079
:1043900010BD84F850302046FDF70EFDBCE701202B
:1043A00070472DE9F04383B01F460A9D90F85030C6
:1043B000012B00F01081044688469146012380F8C5
:1043C0005030FEF76FFD064694F85130DBB262685C
:1043D000012B0AD0B2F5827F40F0E380A268002A68
:1043E00040F0E980042B40F0E880B8F1000F00F0C5
:1043F000E680B9F1000F00F0E480002F00F0E380C8
:1044000094F85130DBB2042B02D0052384F85130EC
:1044100000236365C4F83890E787A787C4F8308025
:10442000E786A7862364636423681A6812F0400F46
:1044300003D11A6842F040021A60E368B3F5006FD6
:1044400011D063680BB1012F0BD1226B2368127856
:104450001A73236B01332363E38E9BB2013B9BB240
:10446000E38601276BE063680BB1012F0BD1226B50
:1044700023681288DA60236B02332363E38E9BB2D6
:10448000013B9BB2E38601271CE023689A6812F087
:10449000010F0ED0E28F92B25AB1DA68A36B1A8084
:1044A000A36B0233A363E38F9BB2013B9BB2E38711
:1044B0000127FEF7F7FC801BA84203D3B5F1FF3FAD
:1044C00040F08380E38E9BB21BB9E38F9BB2002B3D
:1044D00053D023689A6812F0020FD6D0E28E92B2BF
:1044E000002AD2D0002FD0D0226B1288DA60236B42
:1044F00002332363E38E9BB2013B9BB2E38600272A
:10450000C3E723689A6812F0010F0ED0E28F92B2CF
:104510005AB1DA68A36B1A70A36B0133A363E38FFC
:104520009BB2013B9BB2E3870127FEF7BBFC831BD9
:10453000AB4202D3B5F1FF3F49D1002D49D0E38E04
:104540009BB213B9E38F9BB2BBB123689A6812F098
:10455000020FD6D0E28E92B2002AD2D0002FD0D055
:10456000226B12781A73236B01332363E38E9BB2A1
:10457000013B9BB2E3860027C3E73246294620462B
:10458000FFF7A2FE48B9A36863B901932368DA680C
:1045900001929B680193019B04E020236365012045
:1045A00000E00220012384F85130002384F85030C9
:1045B00003B0BDE8F0830220F4E70220F2E7012017
:1045C000F0E70120EEE70120ECE70320EAE7032013
:1045D000E8E70320E6E70220EAE70000014B18685D
:1045E000704700BFDC00002070B50D4E0D4D761BEE
:1045F000B61006D0002455F8043B01349847A64273
:10460000F9D1094E094D07F0DDF9761BB61006D039
:10461000002455F8043B01349847A642F9D170BDF7
:1046200020CE000820CE000828CE000820CE0008AA
:10463000830730B548D0541E002A3FD00346CAB283
:1046400001E0013C3AD303F8012B9D07F9D1032C7B
:104650002DD9CDB245EA05250F2C45EA054536D9B9
:10466000A4F1100222F00F0C03F1200EE6444FEAF1
:10467000121C03F1100242E9045542E902551032BE
:104680007245F8D10CF1010214F00C0F03EB021289
:1046900004F00F0C13D0ACF1040323F00303043334
:1046A000134442F8045B9342FBD10CF003042CB199
:1046B000CAB21C4403F8012B9C42FBD130BD6446B6
:1046C0001346002CF4D1F9E703461446BFE71A4617
:1046D000A446E0E70EB430B504466FF000459CB048
:1046E0000B4A1FAB0B49059253F8042B086802A92B
:1046F000CDE9013407950495069400F00DF80022E9
:10470000029B1A701CB0BDE8304003B0704700BF78
:104710000802FFFFDC0000202DE9F04FD5B00C4669
:104720000C9191460E930A9002F0BAFE0368184667
:10473000179303F0AFFDA3891690190603D52369DB
:10474000002B00F08F8700242BAB224698464D4665
:10475000CDE929442893129400230024CDE9143490
:104760002B78CDE91922CDE91B2218920892002B53
:1047700000F0CE81AA4604E01AF8013F002B00F0B9
:104780000981252BF8D1BAEB050640F007819AF88C
:104790000030002B00F0BC8100234FF0FF324FF0BF
:1047A0002B0920241F469AF8016007920AF1010A9A
:1047B0008DF8833009930AF1010AA6F120035A2BE0
:1047C00000F22081DFE813F0CA021E011E01C502BB
:1047D0001E011E011E01A3021E011E016A00F3023A
:1047E0001E014702D9021E01D4025B005B005B0080
:1047F0005B005B005B005B005B005B001E011E0159
:104800001E011E011E011E011E01B0011E010B0230
:104810007A00B001B001B0011E011E011E011E018F
:104820009E021E011E01B6001E011E011E0119027C
:104830001E014C021E011E013F071E011E011E012A
:104840001E011E011E011E011E01B0011E010B02F0
:104850007C00B001B001B00191027C0075001E0126
:1048600084021E017002B8005E0275001E0119026A
:1048700072001C071E011E011F071E01720000228C
:10488000A6F130031AF8016B02EB820203EB42023D
:10489000A6F13003092BF5D909928EE70E9B53F848
:1048A000042B002A09920E93C0F2D2819AF800607C
:1048B00081E79AF8006047F020077CE747F010078F
:1048C000BA060E9B40F17D81073323F007031A4699
:1048D0005B6852F8084B99460E92002BC0F27F8518
:1048E000079B013301F0398054EA090327F0800B5C
:1048F00000F005850A2C79F1000380F093870123ED
:104900005F4630348DF84F410B930DF24F15079AE7
:104910000B9900238A42B8BF0A4606929DF883206D
:104920000D930F9313931093002A7CD0069B0133B1
:10493000069378E047F0100717F0200900F0328165
:104940000E9B073323F00703D3F8049053F8084B6A
:104950000E93002327F4806B00228DF88320079AA2
:10496000511C00F02A8254EA09012BF0800740F024
:104970002382002A41F02B80002B40F0C5841BF0DD
:1049800001030B9300F0548530230DF24F158DF881
:104990004F31BCE7BAEB050600F0BA802A9BC8E9A4
:1049A000005633442A93299B0133072B299305DCB6
:1049B00008F10808089B33440893E8E60C990A9824
:1049C00028AA03F0C9FC80B90DF1AC08F2E70C99F4
:1049D0000A9828AA03F0C0FC002800F08A800D9BEA
:1049E0001BB10D990A9802F05BFC0C9B9B8913F09C
:1049F000400F089B18BF4FF0FF330893089855B03D
:104A0000BDE8F08F002E00F08380012300228DF896
:104A1000EC6006933BAD8DF883200B930D920792CB
:104A20000F921392109217F0020302D006990231EE
:104A3000069117F0840B07D109990698A1EB00099C
:104A4000B9F1000F00F336832A9C82B10122C8F825
:104A50000420299A013401320DF18301072A2A9496
:104A60002992C8F8001000F3698308F108087BB1A7
:104A70000223C8F80430299B0234013321AA072BF2
:104A80002A942993C8F8002000F36C8308F10808E1
:104A9000BBF1800F00F02E82079B0B9AA3EB020B59
:104AA000BBF1000F00F37182FB0500F1C5810B9B88
:104AB000C8F800501C44C8F80430299B2A940133DC
:104AC000072B299300F3EA8208F108087B0705D534
:104AD000099B069A9D1A002D00F35083DDE90832E8
:104AE00006998A42ACBF9B185B180893002C7FF490
:104AF0006EAF002329930D9B1BB10D990A9802F00C
:104B0000CFFB55460DF1AC082B78002B7FF432AE6D
:104B10002A9B002B3FF469AF0C9C0A98214628AAD7
:104B200003F01AFCA38962E70E9B073323F0070208
:104B3000F2E80234CDE91434DDE9143424F0004401
:104B4000994618460E9221464FF0FF32B64BFBF7BE
:104B5000F3FF002840F09684484621464FF0FF328C
:104B6000B14BFBF72DFF002840F08C84DDE91401E8
:104B700000220023FBF71AFF002840F0A6879DF8CB
:104B8000832000210320A94DA94B27F080070D9118
:104B90000690472EC8BF1D4607910B900F911391A9
:104BA0001091C1E617F0100340F0628417F0400244
:104BB00000F07B870E9A994652F8044B0E92A4B2ED
:104BC000C7E653F8044B0E93FB0600F141847D06C3
:104BD00040F13B8444F3C0394B4624B27DE60120CA
:104BE00000220E9B069053F8041B3BAD8DF88320EA
:104BF0008DF8EC100E930B9010E74FF000090E9C0F
:104C0000079B54F8045B8DF88390002D00F0EE862E
:104C10005A1C00F060851A464946284602F0F8FE04
:104C20000D90002801F09E800D9B9DF883205B1B5A
:104C30000B9323EAE373CDF81C900E940693CDF802
:104C40003490CDF83C90CDF84C90CDF840906BE688
:104C5000099B5B4209939AF8006047F00407AAE5B4
:104C600047F0100B1BF0200900F0AA830E9B0733BE
:104C700023F007031A4652F8084BD3F804900E921B
:104C8000012369E6302278260E9B8DF8842053F8A4
:104C9000044B684A0E934FF00009022347F0020BC1
:104CA0008DF88560189257E6BD0600F1D683FC06A4
:104CB00000F19386780600F15D87B90540F18D8695
:104CC0000E9B089953F8042B554611700E931BE761
:104CD0009AF800606C2E03BF9AF8016047F0200735
:104CE0000AF1010A47F0100765E59AF80060682E9E
:104CF00003BF9AF8016047F400770AF1010A47F010
:104D0000400758E59AF8006047F0080753E50A9E07
:104D1000304602F0C5FB436818461B9303F0BAFA0D
:104D2000034630461C931E4602F0BAFB8368199373
:104D3000002E3FF4BBAD199B002B3FF4B7AD199B80
:104D40001B78002B3FF4B2AD9AF8006047F48067FF
:104D500031E59AF8006047F001072CE59DF88330B3
:104D6000002B7FF4A3AD9AF800608DF8834022E514
:104D70009AF8006047F080071DE5524612F8016B73
:104D80002A2E01F0EB81A6F13003092B924698BF41
:104D9000002201F203801AF8016B02EB820203EB9E
:104DA0004202A6F13003092BF5D9079205E59AF8DE
:104DB00000608DF88390FEE4BB46012B3FF49AAD72
:104DC000022B54AD12D1189A04F00F03D35C2409BE
:104DD00044EA09744FEA191905F8013D54EA090338
:104DE000F2D154AB5B1B5F460B9390E504F00703D5
:104DF000E40844EA49744FEAD909303354EA090116
:104E00002A4605F8013DF1D11BF0010FE9D0302B06
:104E1000E7D03023023A05F8013C54AB9B1A5F46B9
:104E200015460B9373E500BFFFFFEF7F48C80008EE
:104E30004CC8000858C80008652E40F3E980DDE939
:104E4000140100220023FBF7A7FD002800F0D28107
:104E50000123C8F80430299BBF4A01330134072BD2
:104E60002A942993C8F8002000F37A8508F10808ED
:104E7000229B129A934280F2D782169B179A1C4467
:104E8000C8E90023299B2A940133072B299300F3B7
:104E9000DD8308F10808129B5D1E002D7FF716AE1A
:104EA000102D41F34181DFF8B49222464946102685
:104EB000B946299B0F46DDF828B00C9C05E008F1A7
:104EC0000808103D102D40F3588501331032072B90
:104ED000C8E90076CDE92932F1DD2146584628AAF5
:104EE00003F03AFA00287FF47AADDDE929320DF1BA
:104EF000AC08E6E7099B069AA3EB020BBBF1000F97
:104F00007FF7CAADBBF1100F41F30580DFF84C927B
:104F100041462046A8464C461023299A0C9DDDF8B0
:104F2000289006E0ABF1100BBBF1100F01F1080166
:104F300019DD01321030072AC1E90043CDE92920EB
:104F4000F0DD2946484628AA03F006FA00287FF437
:104F500046ADDDE92920ABF1100BBBF1100F4FF08E
:104F600010032BA9E5DC4546A146884604460132DC
:104F70005C44072ACDE92924C8F80090C8F804B099
:104F800000F3188508F1080886E5BBF1100F40F31F
:104F90009785DFF8C89141462046A8464C46102325
:104FA000299A0C9DDDF8289006E0ABF1100BBBF1BF
:104FB000100F01F1080119DD01321030072AC1E993
:104FC0000043CDE92920F0DD2946484628AA03F010
:104FD000C3F900287FF403ADDDE92920ABF1100B04
:104FE000BBF1100F4FF010032BA9E5DC4546A1469D
:104FF0008846044601325C44072ACDE92924C8F8D2
:105000000090C8F804B000F3CE8108F108084BE521
:10501000129B012B40F37E810123299E01341E4403
:10502000072EC8F800502A94C8F80430299600F3D7
:10503000E18108F10808169B0136179A1C44072ED7
:10504000C8E90023CDE9296400F3E18108F10808EB
:105050000022DDE914010023FBF79EFC002840F04C
:105060007681129B0136013B01351C44072EC8F89E
:1050700000502996C8F804302A9400F35B8108F1A7
:1050800008081A9B01361C44C8F80430072E24ABCC
:10509000CDE92964C8F800307FF716AD0C990A985D
:1050A00028AA03F059F900287FF499AC2A9C0DF145
:1050B000AC080BE5B9F1100F40F35086DDE929216A
:1050C0004046CDE91D36B84610244F460C9EA946F1
:1050D0000A9D04E0103F102F00F1080016DD013298
:1050E0001F4B1031072AC0E90034CDE92921F1DD39
:1050F0003146284628AA03F02FF900287FF46FAC28
:10510000DDE92921103F102F2BA8E8DC4D46DDE911
:105110001D36B9464746804609EB01040132104965
:10512000072ACDE92924C8F80490C8F8001000F334
:10513000C3839DF8832008F1080886E40C990A9837
:1051400028AA1D9303F008F900287FF448AC2A9C94
:105150001D9B0DF1AC088AE488C800089CC80008B3
:105160008CC800080C990A9828AA03F0F5F80028C2
:105170007FF435AC2A9C0DF1AC0889E4102D40F386
:10518000C4861026299B0A9FDDF8309004E0103D6C
:10519000102D08F1080817DD0133B84A1034072B29
:1051A000C8E90026CDE92934F1DD4946384628AA68
:1051B00003F0D2F800287FF412ACDDE92934103D69
:1051C000102D0DF1AC08E7DC0133AC4A2C44072B61
:1051D000CDE92934C8F80450C8F800207FF77EAC28
:1051E0000C990A9828AA03F0B7F800287FF4F7ABC7
:1051F0002A9C73E42299002940F36F83DDF84090E4
:10520000129B9945A8BF9946B9F1000F0BDD299B68
:105210004C440133072BC8E900592A94299300F321
:105220001D8508F10808109EB9F1000FA8BFA6EB74
:105230000906002E00F32582DDF840B07805AB4466
:1052400000F15F82229B129A934202DBF90740F140
:105250007684169A17991444C8E90012299A2A9458
:105260000132072A299200F3138508F10808129ADF
:10527000AE18A6EB0B06D51AAE42A8BF2E46002EDE
:105280000DDD299B34440133072BC8F800B0C8F862
:1052900004602A94299300F3718508F10808002E10
:1052A000A8BFAD1B002D7FF711AC102D40F33C873C
:1052B000DFF8CC91224649461026B946299B0F4675
:1052C000DDF828B00C9C05E008F10808103D102D11
:1052D00040F3538301331032072BC8E90076CDE940
:1052E0002932F1DD2146584628AA03F035F8002876
:1052F0007FF475ABDDE929320DF1AC08E6E7079BD9
:10530000002B7FF4FCAA5F46002354AD07930B9358
:10531000FFF7FDBAFA073FF57FAE0123299E01345E
:105320001E44072EC8F800502A94C8F80430299665
:105330007FF7A5AE0C990A9828AA03F00DF800286B
:105340007FF44DABDDE929640DF1AC0899E6129BC1
:105350005D1E002D7FF795AE102D40F3DF862246AF
:1053600007974FF0100BDFF818910A9C0C9F05E08F
:1053700008F10808103D102D40F37F8301361032EC
:10538000072EC8E9009BCDE92962F1DD39462046A8
:1053900028AA02F0E1FF00287FF421ABDDE92962B1
:1053A0000DF1AC08E6E70C990A9828AA02F0D4FFA0
:1053B00000287FF414AB2A9C0DF1AC08FFF774BBF6
:1053C0001BF010030E9A3AD11BF0400133D052F873
:1053D000044B99460E920123A4B2FFF7BDBA2D23C8
:1053E00064428DF88330BB464FF0010369EB4909F5
:1053F000FFF7B5BA0C990A9828AA02F0ADFF002869
:105400007FF4EDAADDE929640DF1AC0813E60C99EF
:105410000A9828AA02F0A0FF00287FF4E0AADDE99C
:1054200029640DF1AC0813E6FD077FF54FAB24E5C9
:1054300054ADFFF76CBA1BF4007940F08A8352F840
:10544000044B01230E92FFF787BAB80500F19B8346
:105450004FEAE4794B46FFF740BA0E9B089853F8A1
:10546000041BC2175546C1E900020E93FFF74CBB5F
:105470000E9B53F8044B0E93FFF76BBA8CC80008D1
:105480009CC80008DDE9140102460B46FBF754FBFB
:10549000002840F0E985612E00F07D85412E00F066
:1054A0008B84079B013300F08F8326F02003472B6A
:1054B000069300F08F85DDE9141247F480730F9393
:1054C0001346002BC0F2B0850B9300238B461D932F
:1054D0000D93069B462B00F0E983452B00F0468593
:1054E00007990B9B01910221009126A9049123A900
:1054F000039122A95A460A98029100F005FF069BE3
:105500000546472B40F03A8617F0010FB9460F9F2A
:1055100040F0FE84269B5B1B1293069B472B00F0FA
:105520006E83069B462B00F0F083229B1093109B0A
:10553000069A013B412A229300F0BB850021F2B27A
:10554000002B8DF89020B6BF2D222B22109B8DF8BA
:105550009120B8BFC3F10103092B40F39B850DF1E6
:105560009F0C6246B64F1C46104687FB0312D917A4
:10557000C1EBA20101EB8102A3EB42023032632CAA
:1055800000F8012C0B4600F1FF32ECDC3033811EB9
:10559000DBB28C4502F8013C40F2F9850DF1920135
:1055A00001E012F8013B944501F8013BF9D10DF1FE
:1055B000A1030DF192021B1A134424AA9B1A1A93F9
:1055C000129B1A9A012B1A440B9240F381850B9B74
:1055D000169A13440B9300230B9A29F4806722EA4E
:1055E000E27247F480770F930692139310931D9BFA
:1055F000002B40F02C839DF883200793FFF794B98C
:10560000BB46FFF72FBB8F4B189317F0200900F014
:10561000F5800E9B073323F00703D3F8049053F86B
:10562000084B0E93F80709D554EA090306D0302336
:105630008DF8856047F002078DF88430022327F447
:10564000806BFFF789B9804B1893DEE70C990A98B5
:1056500028AA02F081FE00287FF4C1A92A9C0DF13E
:10566000AC0818E440210A9801F026FF0C9B186052
:105670001861002800F0978540230C9A5361FFF7CA
:1056800062B8102E40F37685DFF8C0914246484656
:105690002146A846B9464FF0100B0746299B0A9CA5
:1056A0000C9D04E00832103E102E40F313820133AB
:1056B0001031072BC2E9007BCDE92931F2DD294603
:1056C000204628AA02F048FE00287FF488A9DDE9D8
:1056D00029312BAAE7E72846CDF81C900E9402F05A
:1056E000D9FD20EAE0739DF883200B90CDF834902B
:1056F000CDF83C90CDF84C90CDF840900693FFF754
:1057000013B9129B4246DDF84C80EB185E460793B6
:10571000CDF82CA010972146199FDDF87090DDF888
:1057200028A0DDF830B00F9B1395B8F1000F2ED0F4
:1057300083BB013F08F1FF381B9B4944C2E9003994
:10574000299B2A910133072B299360DC0832079BA0
:1057500038789B1B8342A8BF0346002B1C460BDDF9
:105760002998194401300728C2E900632A91299039
:1057700000F3148138780832002CB4BF0546051BAD
:10578000002D0BDC06440F9BB8F1000FD0D1002B8D
:1057900000F026820F9B013B0F93CDE7102D40F3C5
:1057A0009D841024299804E0103D102D02F1080278
:1057B00016DD0130254B10310728C2E90034CDE950
:1057C0002901F1DD5946504628AA02F0C5FD0028FE
:1057D0007FF405A9DDE92901103D102D2BAAE8DC95
:1057E00001301A4B29440728CDE92901556013607F
:1057F00000F34182387808320644C4E717F01003FA
:1058000000F0A0800E9B53F8044B0E930AE7594614
:10581000504628AA02F0A0FD00287FF4E0A82A99AB
:105820002BAA94E700230BF480620696CDF82CA0F7
:10583000CDF8348092461E46DDF8648054AF14E003
:105840006766666658C800086CC800089CC80008EF
:105850000023204649460A22FBF784F90A2C79F1F5
:1058600000031BD3044689462F4620460A22002304
:105870004946FBF777F930327D1E013607F8012CD7
:10588000BAF1000FE4D098F800309E42E0D1FF2E2C
:10589000DED00A2C79F1000380F0308154AB5B1B21
:1058A000DDF82CA0CDF8648012965F46069EDDF8E8
:1058B00034800B93FFF72BB80C990A9828AA1D93F4
:1058C00002F04AFD00287FF48AA89DF883202A9CD4
:1058D0001D9B0DF1AC08FFF7B8B80123C8F80430E0
:1058E000299BBC4A01330134072B2A942993C8F819
:1058F000002000F3178108F10808002940F0868095
:10590000129A07F0010313433FF4E0A8169B17997E
:105910001A19C8E90013299B2A920133072B2993EE
:1059200000F3378108F10808129901338C18072B0E
:10593000CDE92934C8F80050C8F804107FF7C4A88E
:10594000FFF7ACBB17F0400200F0A5800E9A994615
:1059500052F8044B0E92A4B264E6BB46FEF7CABFEF
:105960000C990A9828AA02F0F7FC00287FF437A8BF
:105970002A9C0DF1AC08FFF77BBA14463A464F4615
:10598000914601332C44072BC8F80090C8F8045006
:10599000CDE929347FF798A8FFF780BB59465046D8
:1059A00028AA02F0D9FC00287FF419A838782A998F
:1059B0002BAAE1E60C990A9828AA02F0CDFC00284F
:1059C0007FF40DA82A9C0DF1AC08FFF765B8012BF8
:1059D000BB467FF4F5A9FEF792BF0E9B089953F8DA
:1059E000042B554611600E93FFF78EB8062B2946FF
:1059F00028BF06232A4607950D950693764D0E94EB
:105A00000B930F9113911091FEF78EBF169B179871
:105A10001A19C8E90003299B2A920133072B2993FD
:105A200000F3B78008F108080029BFF67DAF4E42A9
:105A3000103180F2A98341461024A846DFF89C91DA
:105A4000DDF828B00C9D04E00831103E102E40F324
:105A5000A78201331032072BC1E90094CDE9293226
:105A6000F2DD2946584628AA02F076FC00287EF48A
:105A7000B6AFDDE929322BA9E7E71446079F0136C7
:105A80002C44072ECDE92964C8F80090C8F80450CA
:105A90007FF7F5AA4EE417F400790E9B66D053F811
:105AA000044B91460E93E4B2BCE517F400790E9BCB
:105AB00057D053F8044B91460E93E4B2FEF749BF1A
:105AC000299ADFF81891FFF795BA2D228DF88320D7
:105AD000FFF757B8454690463A460C464F46914622
